{
  "_format": "hh-sol-artifact-1",
  "contractName": "FudFarm",
  "sourceName": "contracts/FudFarm.sol",
  "abi": [
    {
      "inputs": [
        {
          "internalType": "string",
          "name": "name_",
          "type": "string"
        },
        {
          "internalType": "string",
          "name": "symbol_",
          "type": "string"
        },
        {
          "internalType": "string",
          "name": "baseURI_",
          "type": "string"
        }
      ],
      "stateMutability": "nonpayable",
      "type": "constructor"
    },
    {
      "anonymous": false,
      "inputs": [
        {
          "indexed": true,
          "internalType": "address",
          "name": "owner",
          "type": "address"
        },
        {
          "indexed": true,
          "internalType": "address",
          "name": "approved",
          "type": "address"
        },
        {
          "indexed": true,
          "internalType": "uint256",
          "name": "tokenId",
          "type": "uint256"
        }
      ],
      "name": "Approval",
      "type": "event"
    },
    {
      "anonymous": false,
      "inputs": [
        {
          "indexed": true,
          "internalType": "address",
          "name": "owner",
          "type": "address"
        },
        {
          "indexed": true,
          "internalType": "address",
          "name": "operator",
          "type": "address"
        },
        {
          "indexed": false,
          "internalType": "bool",
          "name": "approved",
          "type": "bool"
        }
      ],
      "name": "ApprovalForAll",
      "type": "event"
    },
    {
      "anonymous": false,
      "inputs": [
        {
          "indexed": true,
          "internalType": "address",
          "name": "sender",
          "type": "address"
        },
        {
          "indexed": false,
          "internalType": "uint256",
          "name": "startWith",
          "type": "uint256"
        },
        {
          "indexed": false,
          "internalType": "uint256",
          "name": "times",
          "type": "uint256"
        }
      ],
      "name": "MintLand",
      "type": "event"
    },
    {
      "anonymous": false,
      "inputs": [
        {
          "indexed": true,
          "internalType": "address",
          "name": "previousOwner",
          "type": "address"
        },
        {
          "indexed": true,
          "internalType": "address",
          "name": "newOwner",
          "type": "address"
        }
      ],
      "name": "OwnershipTransferred",
      "type": "event"
    },
    {
      "anonymous": false,
      "inputs": [
        {
          "indexed": true,
          "internalType": "address",
          "name": "from",
          "type": "address"
        },
        {
          "indexed": true,
          "internalType": "address",
          "name": "to",
          "type": "address"
        },
        {
          "indexed": true,
          "internalType": "uint256",
          "name": "tokenId",
          "type": "uint256"
        }
      ],
      "name": "Transfer",
      "type": "event"
    },
    {
      "inputs": [
        {
          "internalType": "address",
          "name": "to",
          "type": "address"
        },
        {
          "internalType": "uint256",
          "name": "tokenId",
          "type": "uint256"
        }
      ],
      "name": "approve",
      "outputs": [],
      "stateMutability": "nonpayable",
      "type": "function"
    },
    {
      "inputs": [
        {
          "internalType": "address",
          "name": "owner",
          "type": "address"
        }
      ],
      "name": "balanceOf",
      "outputs": [
        {
          "internalType": "uint256",
          "name": "",
          "type": "uint256"
        }
      ],
      "stateMutability": "view",
      "type": "function"
    },
    {
      "inputs": [],
      "name": "baseURI",
      "outputs": [
        {
          "internalType": "string",
          "name": "",
          "type": "string"
        }
      ],
      "stateMutability": "view",
      "type": "function"
    },
    {
      "inputs": [
        {
          "internalType": "uint256",
          "name": "_times",
          "type": "uint256"
        }
      ],
      "name": "devMint",
      "outputs": [],
      "stateMutability": "nonpayable",
      "type": "function"
    },
    {
      "inputs": [
        {
          "internalType": "uint256",
          "name": "tokenId",
          "type": "uint256"
        }
      ],
      "name": "getApproved",
      "outputs": [
        {
          "internalType": "address",
          "name": "",
          "type": "address"
        }
      ],
      "stateMutability": "view",
      "type": "function"
    },
    {
      "inputs": [
        {
          "internalType": "address",
          "name": "owner",
          "type": "address"
        },
        {
          "internalType": "address",
          "name": "operator",
          "type": "address"
        }
      ],
      "name": "isApprovedForAll",
      "outputs": [
        {
          "internalType": "bool",
          "name": "",
          "type": "bool"
        }
      ],
      "stateMutability": "view",
      "type": "function"
    },
    {
      "inputs": [],
      "name": "maxBatch",
      "outputs": [
        {
          "internalType": "uint256",
          "name": "",
          "type": "uint256"
        }
      ],
      "stateMutability": "view",
      "type": "function"
    },
    {
      "inputs": [
        {
          "internalType": "uint256",
          "name": "_times",
          "type": "uint256"
        }
      ],
      "name": "mint",
      "outputs": [],
      "stateMutability": "payable",
      "type": "function"
    },
    {
      "inputs": [],
      "name": "name",
      "outputs": [
        {
          "internalType": "string",
          "name": "",
          "type": "string"
        }
      ],
      "stateMutability": "view",
      "type": "function"
    },
    {
      "inputs": [],
      "name": "owner",
      "outputs": [
        {
          "internalType": "address",
          "name": "",
          "type": "address"
        }
      ],
      "stateMutability": "view",
      "type": "function"
    },
    {
      "inputs": [
        {
          "internalType": "uint256",
          "name": "tokenId",
          "type": "uint256"
        }
      ],
      "name": "ownerOf",
      "outputs": [
        {
          "internalType": "address",
          "name": "",
          "type": "address"
        }
      ],
      "stateMutability": "view",
      "type": "function"
    },
    {
      "inputs": [],
      "name": "price",
      "outputs": [
        {
          "internalType": "uint256",
          "name": "",
          "type": "uint256"
        }
      ],
      "stateMutability": "view",
      "type": "function"
    },
    {
      "inputs": [],
      "name": "renounceOwnership",
      "outputs": [],
      "stateMutability": "nonpayable",
      "type": "function"
    },
    {
      "inputs": [
        {
          "internalType": "address",
          "name": "from",
          "type": "address"
        },
        {
          "internalType": "address",
          "name": "to",
          "type": "address"
        },
        {
          "internalType": "uint256",
          "name": "tokenId",
          "type": "uint256"
        }
      ],
      "name": "safeTransferFrom",
      "outputs": [],
      "stateMutability": "nonpayable",
      "type": "function"
    },
    {
      "inputs": [
        {
          "internalType": "address",
          "name": "from",
          "type": "address"
        },
        {
          "internalType": "address",
          "name": "to",
          "type": "address"
        },
        {
          "internalType": "uint256",
          "name": "tokenId",
          "type": "uint256"
        },
        {
          "internalType": "bytes",
          "name": "_data",
          "type": "bytes"
        }
      ],
      "name": "safeTransferFrom",
      "outputs": [],
      "stateMutability": "nonpayable",
      "type": "function"
    },
    {
      "inputs": [
        {
          "internalType": "address",
          "name": "operator",
          "type": "address"
        },
        {
          "internalType": "bool",
          "name": "approved",
          "type": "bool"
        }
      ],
      "name": "setApprovalForAll",
      "outputs": [],
      "stateMutability": "nonpayable",
      "type": "function"
    },
    {
      "inputs": [
        {
          "internalType": "string",
          "name": "_newURI",
          "type": "string"
        }
      ],
      "name": "setBaseURI",
      "outputs": [],
      "stateMutability": "nonpayable",
      "type": "function"
    },
    {
      "inputs": [
        {
          "internalType": "bool",
          "name": "_start",
          "type": "bool"
        }
      ],
      "name": "setStart",
      "outputs": [],
      "stateMutability": "nonpayable",
      "type": "function"
    },
    {
      "inputs": [
        {
          "internalType": "bytes4",
          "name": "interfaceId",
          "type": "bytes4"
        }
      ],
      "name": "supportsInterface",
      "outputs": [
        {
          "internalType": "bool",
          "name": "",
          "type": "bool"
        }
      ],
      "stateMutability": "view",
      "type": "function"
    },
    {
      "inputs": [],
      "name": "symbol",
      "outputs": [
        {
          "internalType": "string",
          "name": "",
          "type": "string"
        }
      ],
      "stateMutability": "view",
      "type": "function"
    },
    {
      "inputs": [
        {
          "internalType": "uint256",
          "name": "index",
          "type": "uint256"
        }
      ],
      "name": "tokenByIndex",
      "outputs": [
        {
          "internalType": "uint256",
          "name": "",
          "type": "uint256"
        }
      ],
      "stateMutability": "view",
      "type": "function"
    },
    {
      "inputs": [
        {
          "internalType": "address",
          "name": "owner",
          "type": "address"
        },
        {
          "internalType": "uint256",
          "name": "index",
          "type": "uint256"
        }
      ],
      "name": "tokenOfOwnerByIndex",
      "outputs": [
        {
          "internalType": "uint256",
          "name": "",
          "type": "uint256"
        }
      ],
      "stateMutability": "view",
      "type": "function"
    },
    {
      "inputs": [
        {
          "internalType": "uint256",
          "name": "tokenId",
          "type": "uint256"
        }
      ],
      "name": "tokenURI",
      "outputs": [
        {
          "internalType": "string",
          "name": "",
          "type": "string"
        }
      ],
      "stateMutability": "view",
      "type": "function"
    },
    {
      "inputs": [
        {
          "internalType": "address",
          "name": "owner",
          "type": "address"
        }
      ],
      "name": "tokensOfOwner",
      "outputs": [
        {
          "internalType": "uint256[]",
          "name": "",
          "type": "uint256[]"
        }
      ],
      "stateMutability": "view",
      "type": "function"
    },
    {
      "inputs": [],
      "name": "totalCount",
      "outputs": [
        {
          "internalType": "uint256",
          "name": "",
          "type": "uint256"
        }
      ],
      "stateMutability": "view",
      "type": "function"
    },
    {
      "inputs": [],
      "name": "totalLands",
      "outputs": [
        {
          "internalType": "uint256",
          "name": "",
          "type": "uint256"
        }
      ],
      "stateMutability": "view",
      "type": "function"
    },
    {
      "inputs": [],
      "name": "totalPublic",
      "outputs": [
        {
          "internalType": "uint256",
          "name": "",
          "type": "uint256"
        }
      ],
      "stateMutability": "view",
      "type": "function"
    },
    {
      "inputs": [],
      "name": "totalSupply",
      "outputs": [
        {
          "internalType": "uint256",
          "name": "",
          "type": "uint256"
        }
      ],
      "stateMutability": "view",
      "type": "function"
    },
    {
      "inputs": [
        {
          "internalType": "address",
          "name": "from",
          "type": "address"
        },
        {
          "internalType": "address",
          "name": "to",
          "type": "address"
        },
        {
          "internalType": "uint256",
          "name": "tokenId",
          "type": "uint256"
        }
      ],
      "name": "transferFrom",
      "outputs": [],
      "stateMutability": "nonpayable",
      "type": "function"
    },
    {
      "inputs": [
        {
          "internalType": "address",
          "name": "newOwner",
          "type": "address"
        }
      ],
      "name": "transferOwnership",
      "outputs": [],
      "stateMutability": "nonpayable",
      "type": "function"
    }
  ],
  "bytecode": "0x6080604052612710600c55611e61600d55600a600e55666a94d74f430000600f553480156200002d57600080fd5b5060405162004833380380620048338339818101604052810190620000539190620002bb565b828281600090805190602001906200006d92919062000199565b5080600190805190602001906200008692919062000199565b505050620000a96200009d620000cb60201b60201c565b620000d360201b60201c565b8060109080519060200190620000c192919062000199565b50505050620004cc565b600033905090565b6000600a60009054906101000a900473ffffffffffffffffffffffffffffffffffffffff16905081600a60006101000a81548173ffffffffffffffffffffffffffffffffffffffff021916908373ffffffffffffffffffffffffffffffffffffffff1602179055508173ffffffffffffffffffffffffffffffffffffffff168173ffffffffffffffffffffffffffffffffffffffff167f8be0079c531659141344cd1fd0a4f28419497f9722a3daafe3b4186f6b6457e060405160405180910390a35050565b828054620001a790620003f1565b90600052602060002090601f016020900481019282620001cb576000855562000217565b82601f10620001e657805160ff191683800117855562000217565b8280016001018555821562000217579182015b8281111562000216578251825591602001919060010190620001f9565b5b5090506200022691906200022a565b5090565b5b80821115620002455760008160009055506001016200022b565b5090565b6000620002606200025a8462000385565b6200035c565b9050828152602081018484840111156200027957600080fd5b62000286848285620003bb565b509392505050565b600082601f830112620002a057600080fd5b8151620002b284826020860162000249565b91505092915050565b600080600060608486031215620002d157600080fd5b600084015167ffffffffffffffff811115620002ec57600080fd5b620002fa868287016200028e565b935050602084015167ffffffffffffffff8111156200031857600080fd5b62000326868287016200028e565b925050604084015167ffffffffffffffff8111156200034457600080fd5b62000352868287016200028e565b9150509250925092565b6000620003686200037b565b905062000376828262000427565b919050565b6000604051905090565b600067ffffffffffffffff821115620003a357620003a26200048c565b5b620003ae82620004bb565b9050602081019050919050565b60005b83811015620003db578082015181840152602081019050620003be565b83811115620003eb576000848401525b50505050565b600060028204905060018216806200040a57607f821691505b602082108114156200042157620004206200045d565b5b50919050565b6200043282620004bb565b810181811067ffffffffffffffff821117156200045457620004536200048c565b5b80604052505050565b7f4e487b7100000000000000000000000000000000000000000000000000000000600052602260045260246000fd5b7f4e487b7100000000000000000000000000000000000000000000000000000000600052604160045260246000fd5b6000601f19601f8301169050919050565b61435780620004dc6000396000f3fe6080604052600436106101cd5760003560e01c806367765b87116100f757806395d89b4111610095578063b88d4fde11610064578063b88d4fde1461067d578063c87b56dd146106a6578063e985e9c5146106e3578063f2fde38b14610720576101cd565b806395d89b41146105e2578063a035b1fe1461060d578063a0712d6814610638578063a22cb46514610654576101cd565b806370a08231116100d157806370a0823114610526578063715018a6146105635780638462151c1461057a5780638da5cb5b146105b7576101cd565b806367765b87146104a757806368e24327146104d25780636c0360eb146104fb576101cd565b806323d07d1b1161016f57806342842e0e1161013e57806342842e0e146103db5780634f6ccce71461040457806355f804b3146104415780636352211e1461046a576101cd565b806323d07d1b1461031f5780632f745c591461034a57806334eafb1114610387578063375a069a146103b2576101cd565b8063095ea7b3116101ab578063095ea7b31461027757806318160ddd146102a05780631d8de063146102cb57806323b872dd146102f6576101cd565b806301ffc9a7146101d257806306fdde031461020f578063081812fc1461023a575b600080fd5b3480156101de57600080fd5b506101f960048036038101906101f49190612e5d565b610749565b6040516102069190613491565b60405180910390f35b34801561021b57600080fd5b506102246107c3565b60405161023191906134ac565b60405180910390f35b34801561024657600080fd5b50610261600480360381019061025c9190612ef0565b610855565b60405161026e9190613408565b60405180910390f35b34801561028357600080fd5b5061029e60048036038101906102999190612df8565b6108da565b005b3480156102ac57600080fd5b506102b56109f2565b6040516102c291906137ce565b60405180910390f35b3480156102d757600080fd5b506102e06109ff565b6040516102ed91906137ce565b60405180910390f35b34801561030257600080fd5b5061031d60048036038101906103189190612cf2565b610a05565b005b34801561032b57600080fd5b50610334610a65565b60405161034191906137ce565b60405180910390f35b34801561035657600080fd5b50610371600480360381019061036c9190612df8565b610a6b565b60405161037e91906137ce565b60405180910390f35b34801561039357600080fd5b5061039c610b10565b6040516103a991906137ce565b60405180910390f35b3480156103be57600080fd5b506103d960048036038101906103d49190612ef0565b610b16565b005b3480156103e757600080fd5b5061040260048036038101906103fd9190612cf2565b610ce5565b005b34801561041057600080fd5b5061042b60048036038101906104269190612ef0565b610d05565b60405161043891906137ce565b60405180910390f35b34801561044d57600080fd5b5061046860048036038101906104639190612eaf565b610d9c565b005b34801561047657600080fd5b50610491600480360381019061048c9190612ef0565b610e32565b60405161049e9190613408565b60405180910390f35b3480156104b357600080fd5b506104bc610ee4565b6040516104c991906137ce565b60405180910390f35b3480156104de57600080fd5b506104f960048036038101906104f49190612e34565b610eea565b005b34801561050757600080fd5b50610510610f83565b60405161051d91906134ac565b60405180910390f35b34801561053257600080fd5b5061054d60048036038101906105489190612c8d565b611011565b60405161055a91906137ce565b60405180910390f35b34801561056f57600080fd5b506105786110c9565b005b34801561058657600080fd5b506105a1600480360381019061059c9190612c8d565b611151565b6040516105ae919061346f565b60405180910390f35b3480156105c357600080fd5b506105cc61124b565b6040516105d99190613408565b60405180910390f35b3480156105ee57600080fd5b506105f7611275565b60405161060491906134ac565b60405180910390f35b34801561061957600080fd5b50610622611307565b60405161062f91906137ce565b60405180910390f35b610652600480360381019061064d9190612ef0565b61130d565b005b34801561066057600080fd5b5061067b60048036038101906106769190612dbc565b611556565b005b34801561068957600080fd5b506106a4600480360381019061069f9190612d41565b61156c565b005b3480156106b257600080fd5b506106cd60048036038101906106c89190612ef0565b6115ce565b6040516106da91906134ac565b60405180910390f35b3480156106ef57600080fd5b5061070a60048036038101906107059190612cb6565b61169b565b6040516107179190613491565b60405180910390f35b34801561072c57600080fd5b5061074760048036038101906107429190612c8d565b61172f565b005b60007f780e9d63000000000000000000000000000000000000000000000000000000007bffffffffffffffffffffffffffffffffffffffffffffffffffffffff1916827bffffffffffffffffffffffffffffffffffffffffffffffffffffffff191614806107bc57506107bb82611827565b5b9050919050565b6060600080546107d290613ae0565b80601f01602080910402602001604051908101604052809291908181526020018280546107fe90613ae0565b801561084b5780601f106108205761010080835404028352916020019161084b565b820191906000526020600020905b81548152906001019060200180831161082e57829003601f168201915b5050505050905090565b600061086082611909565b61089f576040517f08c379a00000000000000000000000000000000000000000000000000000000081526004016108969061366e565b60405180910390fd5b6004600083815260200190815260200160002060009054906101000a900473ffffffffffffffffffffffffffffffffffffffff169050919050565b60006108e582610e32565b90508073ffffffffffffffffffffffffffffffffffffffff168373ffffffffffffffffffffffffffffffffffffffff161415610956576040517f08c379a000000000000000000000000000000000000000000000000000000000815260040161094d9061370e565b60405180910390fd5b8073ffffffffffffffffffffffffffffffffffffffff16610975611975565b73ffffffffffffffffffffffffffffffffffffffff1614806109a457506109a38161099e611975565b61169b565b5b6109e3576040517f08c379a00000000000000000000000000000000000000000000000000000000081526004016109da906135ee565b60405180910390fd5b6109ed838361197d565b505050565b6000600880549050905090565b600b5481565b610a16610a10611975565b82611a36565b610a55576040517f08c379a0000000000000000000000000000000000000000000000000000000008152600401610a4c9061374e565b60405180910390fd5b610a60838383611b14565b505050565b600d5481565b6000610a7683611011565b8210610ab7576040517f08c379a0000000000000000000000000000000000000000000000000000000008152600401610aae906134ee565b60405180910390fd5b600660008473ffffffffffffffffffffffffffffffffffffffff1673ffffffffffffffffffffffffffffffffffffffff168152602001908152602001600020600083815260200190815260200160002054905092915050565b600c5481565b610b1e611975565b73ffffffffffffffffffffffffffffffffffffffff16610b3c61124b565b73ffffffffffffffffffffffffffffffffffffffff1614610b92576040517f08c379a0000000000000000000000000000000000000000000000000000000008152600401610b899061368e565b60405180910390fd5b600d54600b541015610bd9576040517f08c379a0000000000000000000000000000000000000000000000000000000008152600401610bd0906136ce565b60405180910390fd5b600c5481600d54610bea9190613915565b1115610c2b576040517f08c379a0000000000000000000000000000000000000000000000000000000008152600401610c22906136ee565b60405180910390fd5b610c33611975565b73ffffffffffffffffffffffffffffffffffffffff167f59397fa3b16ace9d5bb4841253423be95f06cdca24a50068b5ee6b4c20a65d486001600d54610c799190613915565b83604051610c889291906137e9565b60405180910390a260005b81811015610ce157610cce610ca6611975565b600d6000815480929190610cb990613b43565b919050556001610cc99190613915565b611d70565b8080610cd990613b43565b915050610c93565b5050565b610d008383836040518060200160405280600081525061156c565b505050565b6000610d0f6109f2565b8210610d50576040517f08c379a0000000000000000000000000000000000000000000000000000000008152600401610d479061376e565b60405180910390fd5b60088281548110610d8a577f4e487b7100000000000000000000000000000000000000000000000000000000600052603260045260246000fd5b90600052602060002001549050919050565b610da4611975565b73ffffffffffffffffffffffffffffffffffffffff16610dc261124b565b73ffffffffffffffffffffffffffffffffffffffff1614610e18576040517f08c379a0000000000000000000000000000000000000000000000000000000008152600401610e0f9061368e565b60405180910390fd5b8060109080519060200190610e2e929190612ab1565b5050565b6000806002600084815260200190815260200160002060009054906101000a900473ffffffffffffffffffffffffffffffffffffffff169050600073ffffffffffffffffffffffffffffffffffffffff168173ffffffffffffffffffffffffffffffffffffffff161415610edb576040517f08c379a0000000000000000000000000000000000000000000000000000000008152600401610ed29061362e565b60405180910390fd5b80915050919050565b600e5481565b610ef2611975565b73ffffffffffffffffffffffffffffffffffffffff16610f1061124b565b73ffffffffffffffffffffffffffffffffffffffff1614610f66576040517f08c379a0000000000000000000000000000000000000000000000000000000008152600401610f5d9061368e565b60405180910390fd5b80601160006101000a81548160ff02191690831515021790555050565b60108054610f9090613ae0565b80601f0160208091040260200160405190810160405280929190818152602001828054610fbc90613ae0565b80156110095780601f10610fde57610100808354040283529160200191611009565b820191906000526020600020905b815481529060010190602001808311610fec57829003601f168201915b505050505081565b60008073ffffffffffffffffffffffffffffffffffffffff168273ffffffffffffffffffffffffffffffffffffffff161415611082576040517f08c379a00000000000000000000000000000000000000000000000000000000081526004016110799061360e565b60405180910390fd5b600360008373ffffffffffffffffffffffffffffffffffffffff1673ffffffffffffffffffffffffffffffffffffffff168152602001908152602001600020549050919050565b6110d1611975565b73ffffffffffffffffffffffffffffffffffffffff166110ef61124b565b73ffffffffffffffffffffffffffffffffffffffff1614611145576040517f08c379a000000000000000000000000000000000000000000000000000000000815260040161113c9061368e565b60405180910390fd5b61114f6000611f3e565b565b6060600061115e83611011565b905060008167ffffffffffffffff8111156111a2577f4e487b7100000000000000000000000000000000000000000000000000000000600052604160045260246000fd5b6040519080825280602002602001820160405280156111d05781602001602082028036833780820191505090505b50905060005b82811015611240576111e88582610a6b565b828281518110611221577f4e487b7100000000000000000000000000000000000000000000000000000000600052603260045260246000fd5b602002602001018181525050808061123890613b43565b9150506111d6565b508092505050919050565b6000600a60009054906101000a900473ffffffffffffffffffffffffffffffffffffffff16905090565b60606001805461128490613ae0565b80601f01602080910402602001604051908101604052809291908181526020018280546112b090613ae0565b80156112fd5780601f106112d2576101008083540402835291602001916112fd565b820191906000526020600020905b8154815290600101906020018083116112e057829003601f168201915b5050505050905090565b600f5481565b601160009054906101000a900460ff1661135c576040517f08c379a00000000000000000000000000000000000000000000000000000000081526004016113539061378e565b60405180910390fd5b60008111801561136e5750600e548111155b6113ad576040517f08c379a00000000000000000000000000000000000000000000000000000000081526004016113a4906134ce565b60405180910390fd5b600d5481600b546113be9190613915565b11156113ff576040517f08c379a00000000000000000000000000000000000000000000000000000000081526004016113f6906135ae565b60405180910390fd5b600f548161140d919061399c565b341461144e576040517f08c379a00000000000000000000000000000000000000000000000000000000081526004016114459061372e565b60405180910390fd5b61145661124b565b73ffffffffffffffffffffffffffffffffffffffff166108fc349081150290604051600060405180830381858888f1935050505015801561149b573d6000803e3d6000fd5b506114a4611975565b73ffffffffffffffffffffffffffffffffffffffff167f59397fa3b16ace9d5bb4841253423be95f06cdca24a50068b5ee6b4c20a65d486001600b546114ea9190613915565b836040516114f99291906137e9565b60405180910390a260005b818110156115525761153f611517611975565b600b600081548092919061152a90613b43565b91905055600161153a9190613915565b611d70565b808061154a90613b43565b915050611504565b5050565b611568611561611975565b8383612004565b5050565b61157d611577611975565b83611a36565b6115bc576040517f08c379a00000000000000000000000000000000000000000000000000000000081526004016115b39061374e565b60405180910390fd5b6115c884848484612171565b50505050565b60606115d982611909565b611618576040517f08c379a000000000000000000000000000000000000000000000000000000000815260040161160f906137ae565b60405180910390fd5b60006116226121cd565b90506000815111611668576040518060400160405280600581526020017f2e6a736f6e000000000000000000000000000000000000000000000000000000815250611693565b806116728461225f565b6040516020016116839291906133d9565b6040516020818303038152906040525b915050919050565b6000600560008473ffffffffffffffffffffffffffffffffffffffff1673ffffffffffffffffffffffffffffffffffffffff16815260200190815260200160002060008373ffffffffffffffffffffffffffffffffffffffff1673ffffffffffffffffffffffffffffffffffffffff16815260200190815260200160002060009054906101000a900460ff16905092915050565b611737611975565b73ffffffffffffffffffffffffffffffffffffffff1661175561124b565b73ffffffffffffffffffffffffffffffffffffffff16146117ab576040517f08c379a00000000000000000000000000000000000000000000000000000000081526004016117a29061368e565b60405180910390fd5b600073ffffffffffffffffffffffffffffffffffffffff168173ffffffffffffffffffffffffffffffffffffffff16141561181b576040517f08c379a00000000000000000000000000000000000000000000000000000000081526004016118129061352e565b60405180910390fd5b61182481611f3e565b50565b60007f80ac58cd000000000000000000000000000000000000000000000000000000007bffffffffffffffffffffffffffffffffffffffffffffffffffffffff1916827bffffffffffffffffffffffffffffffffffffffffffffffffffffffff191614806118f257507f5b5e139f000000000000000000000000000000000000000000000000000000007bffffffffffffffffffffffffffffffffffffffffffffffffffffffff1916827bffffffffffffffffffffffffffffffffffffffffffffffffffffffff1916145b8061190257506119018261240c565b5b9050919050565b60008073ffffffffffffffffffffffffffffffffffffffff166002600084815260200190815260200160002060009054906101000a900473ffffffffffffffffffffffffffffffffffffffff1673ffffffffffffffffffffffffffffffffffffffff1614159050919050565b600033905090565b816004600083815260200190815260200160002060006101000a81548173ffffffffffffffffffffffffffffffffffffffff021916908373ffffffffffffffffffffffffffffffffffffffff160217905550808273ffffffffffffffffffffffffffffffffffffffff166119f083610e32565b73ffffffffffffffffffffffffffffffffffffffff167f8c5be1e5ebec7d5bd14f71427d1e84f3dd0314c0f7b2291e5b200ac8c7c3b92560405160405180910390a45050565b6000611a4182611909565b611a80576040517f08c379a0000000000000000000000000000000000000000000000000000000008152600401611a77906135ce565b60405180910390fd5b6000611a8b83610e32565b90508073ffffffffffffffffffffffffffffffffffffffff168473ffffffffffffffffffffffffffffffffffffffff161480611afa57508373ffffffffffffffffffffffffffffffffffffffff16611ae284610855565b73ffffffffffffffffffffffffffffffffffffffff16145b80611b0b5750611b0a818561169b565b5b91505092915050565b8273ffffffffffffffffffffffffffffffffffffffff16611b3482610e32565b73ffffffffffffffffffffffffffffffffffffffff1614611b8a576040517f08c379a0000000000000000000000000000000000000000000000000000000008152600401611b81906136ae565b60405180910390fd5b600073ffffffffffffffffffffffffffffffffffffffff168273ffffffffffffffffffffffffffffffffffffffff161415611bfa576040517f08c379a0000000000000000000000000000000000000000000000000000000008152600401611bf19061356e565b60405180910390fd5b611c05838383612476565b611c1060008261197d565b6001600360008573ffffffffffffffffffffffffffffffffffffffff1673ffffffffffffffffffffffffffffffffffffffff1681526020019081526020016000206000828254611c6091906139f6565b925050819055506001600360008473ffffffffffffffffffffffffffffffffffffffff1673ffffffffffffffffffffffffffffffffffffffff1681526020019081526020016000206000828254611cb79190613915565b92505081905550816002600083815260200190815260200160002060006101000a81548173ffffffffffffffffffffffffffffffffffffffff021916908373ffffffffffffffffffffffffffffffffffffffff160217905550808273ffffffffffffffffffffffffffffffffffffffff168473ffffffffffffffffffffffffffffffffffffffff167fddf252ad1be2c89b69c2b068fc378daa952ba7f163c4a11628f55a4df523b3ef60405160405180910390a4505050565b600073ffffffffffffffffffffffffffffffffffffffff168273ffffffffffffffffffffffffffffffffffffffff161415611de0576040517f08c379a0000000000000000000000000000000000000000000000000000000008152600401611dd79061364e565b60405180910390fd5b611de981611909565b15611e29576040517f08c379a0000000000000000000000000000000000000000000000000000000008152600401611e209061354e565b60405180910390fd5b611e3560008383612476565b6001600360008473ffffffffffffffffffffffffffffffffffffffff1673ffffffffffffffffffffffffffffffffffffffff1681526020019081526020016000206000828254611e859190613915565b92505081905550816002600083815260200190815260200160002060006101000a81548173ffffffffffffffffffffffffffffffffffffffff021916908373ffffffffffffffffffffffffffffffffffffffff160217905550808273ffffffffffffffffffffffffffffffffffffffff16600073ffffffffffffffffffffffffffffffffffffffff167fddf252ad1be2c89b69c2b068fc378daa952ba7f163c4a11628f55a4df523b3ef60405160405180910390a45050565b6000600a60009054906101000a900473ffffffffffffffffffffffffffffffffffffffff16905081600a60006101000a81548173ffffffffffffffffffffffffffffffffffffffff021916908373ffffffffffffffffffffffffffffffffffffffff1602179055508173ffffffffffffffffffffffffffffffffffffffff168173ffffffffffffffffffffffffffffffffffffffff167f8be0079c531659141344cd1fd0a4f28419497f9722a3daafe3b4186f6b6457e060405160405180910390a35050565b8173ffffffffffffffffffffffffffffffffffffffff168373ffffffffffffffffffffffffffffffffffffffff161415612073576040517f08c379a000000000000000000000000000000000000000000000000000000000815260040161206a9061358e565b60405180910390fd5b80600560008573ffffffffffffffffffffffffffffffffffffffff1673ffffffffffffffffffffffffffffffffffffffff16815260200190815260200160002060008473ffffffffffffffffffffffffffffffffffffffff1673ffffffffffffffffffffffffffffffffffffffff16815260200190815260200160002060006101000a81548160ff0219169083151502179055508173ffffffffffffffffffffffffffffffffffffffff168373ffffffffffffffffffffffffffffffffffffffff167f17307eab39ab6107e8899845ad3d59bd9653f200f220920489ca2b5937696c31836040516121649190613491565b60405180910390a3505050565b61217c848484611b14565b6121888484848461258a565b6121c7576040517f08c379a00000000000000000000000000000000000000000000000000000000081526004016121be9061350e565b60405180910390fd5b50505050565b6060601080546121dc90613ae0565b80601f016020809104026020016040519081016040528092919081815260200182805461220890613ae0565b80156122555780601f1061222a57610100808354040283529160200191612255565b820191906000526020600020905b81548152906001019060200180831161223857829003601f168201915b5050505050905090565b606060008214156122a7576040518060400160405280600181526020017f30000000000000000000000000000000000000000000000000000000000000008152509050612407565b600082905060005b600082146122d95780806122c290613b43565b915050600a826122d2919061396b565b91506122af565b60008167ffffffffffffffff81111561231b577f4e487b7100000000000000000000000000000000000000000000000000000000600052604160045260246000fd5b6040519080825280601f01601f19166020018201604052801561234d5781602001600182028036833780820191505090505b5090505b600085146124005760018261236691906139f6565b9150600a856123759190613b8c565b60306123819190613915565b60f81b8183815181106123bd577f4e487b7100000000000000000000000000000000000000000000000000000000600052603260045260246000fd5b60200101907effffffffffffffffffffffffffffffffffffffffffffffffffffffffffffff1916908160001a905350600a856123f9919061396b565b9450612351565b8093505050505b919050565b60007f01ffc9a7000000000000000000000000000000000000000000000000000000007bffffffffffffffffffffffffffffffffffffffffffffffffffffffff1916827bffffffffffffffffffffffffffffffffffffffffffffffffffffffff1916149050919050565b612481838383612721565b600073ffffffffffffffffffffffffffffffffffffffff168373ffffffffffffffffffffffffffffffffffffffff1614156124c4576124bf81612726565b612503565b8173ffffffffffffffffffffffffffffffffffffffff168373ffffffffffffffffffffffffffffffffffffffff161461250257612501838261276f565b5b5b600073ffffffffffffffffffffffffffffffffffffffff168273ffffffffffffffffffffffffffffffffffffffff16141561254657612541816128dc565b612585565b8273ffffffffffffffffffffffffffffffffffffffff168273ffffffffffffffffffffffffffffffffffffffff1614612584576125838282612a1f565b5b5b505050565b60006125ab8473ffffffffffffffffffffffffffffffffffffffff16612a9e565b15612714578373ffffffffffffffffffffffffffffffffffffffff1663150b7a026125d4611975565b8786866040518563ffffffff1660e01b81526004016125f69493929190613423565b602060405180830381600087803b15801561261057600080fd5b505af192505050801561264157506040513d601f19601f8201168201806040525081019061263e9190612e86565b60015b6126c4573d8060008114612671576040519150601f19603f3d011682016040523d82523d6000602084013e612676565b606091505b506000815114156126bc576040517f08c379a00000000000000000000000000000000000000000000000000000000081526004016126b39061350e565b60405180910390fd5b805181602001fd5b63150b7a0260e01b7bffffffffffffffffffffffffffffffffffffffffffffffffffffffff1916817bffffffffffffffffffffffffffffffffffffffffffffffffffffffff191614915050612719565b600190505b949350505050565b505050565b6008805490506009600083815260200190815260200160002081905550600881908060018154018082558091505060019003906000526020600020016000909190919091505550565b6000600161277c84611011565b61278691906139f6565b905060006007600084815260200190815260200160002054905081811461286b576000600660008673ffffffffffffffffffffffffffffffffffffffff1673ffffffffffffffffffffffffffffffffffffffff168152602001908152602001600020600084815260200190815260200160002054905080600660008773ffffffffffffffffffffffffffffffffffffffff1673ffffffffffffffffffffffffffffffffffffffff168152602001908152602001600020600084815260200190815260200160002081905550816007600083815260200190815260200160002081905550505b6007600084815260200190815260200160002060009055600660008573ffffffffffffffffffffffffffffffffffffffff1673ffffffffffffffffffffffffffffffffffffffff16815260200190815260200160002060008381526020019081526020016000206000905550505050565b600060016008805490506128f091906139f6565b9050600060096000848152602001908152602001600020549050600060088381548110612946577f4e487b7100000000000000000000000000000000000000000000000000000000600052603260045260246000fd5b90600052602060002001549050806008838154811061298e577f4e487b7100000000000000000000000000000000000000000000000000000000600052603260045260246000fd5b906000526020600020018190555081600960008381526020019081526020016000208190555060096000858152602001908152602001600020600090556008805480612a03577f4e487b7100000000000000000000000000000000000000000000000000000000600052603160045260246000fd5b6001900381819060005260206000200160009055905550505050565b6000612a2a83611011565b905081600660008573ffffffffffffffffffffffffffffffffffffffff1673ffffffffffffffffffffffffffffffffffffffff168152602001908152602001600020600083815260200190815260200160002081905550806007600084815260200190815260200160002081905550505050565b600080823b905060008111915050919050565b828054612abd90613ae0565b90600052602060002090601f016020900481019282612adf5760008555612b26565b82601f10612af857805160ff1916838001178555612b26565b82800160010185558215612b26579182015b82811115612b25578251825591602001919060010190612b0a565b5b509050612b339190612b37565b5090565b5b80821115612b50576000816000905550600101612b38565b5090565b6000612b67612b6284613837565b613812565b905082815260208101848484011115612b7f57600080fd5b612b8a848285613a9e565b509392505050565b6000612ba5612ba084613868565b613812565b905082815260208101848484011115612bbd57600080fd5b612bc8848285613a9e565b509392505050565b600081359050612bdf816142c5565b92915050565b600081359050612bf4816142dc565b92915050565b600081359050612c09816142f3565b92915050565b600081519050612c1e816142f3565b92915050565b600082601f830112612c3557600080fd5b8135612c45848260208601612b54565b91505092915050565b600082601f830112612c5f57600080fd5b8135612c6f848260208601612b92565b91505092915050565b600081359050612c878161430a565b92915050565b600060208284031215612c9f57600080fd5b6000612cad84828501612bd0565b91505092915050565b60008060408385031215612cc957600080fd5b6000612cd785828601612bd0565b9250506020612ce885828601612bd0565b9150509250929050565b600080600060608486031215612d0757600080fd5b6000612d1586828701612bd0565b9350506020612d2686828701612bd0565b9250506040612d3786828701612c78565b9150509250925092565b60008060008060808587031215612d5757600080fd5b6000612d6587828801612bd0565b9450506020612d7687828801612bd0565b9350506040612d8787828801612c78565b925050606085013567ffffffffffffffff811115612da457600080fd5b612db087828801612c24565b91505092959194509250565b60008060408385031215612dcf57600080fd5b6000612ddd85828601612bd0565b9250506020612dee85828601612be5565b9150509250929050565b60008060408385031215612e0b57600080fd5b6000612e1985828601612bd0565b9250506020612e2a85828601612c78565b9150509250929050565b600060208284031215612e4657600080fd5b6000612e5484828501612be5565b91505092915050565b600060208284031215612e6f57600080fd5b6000612e7d84828501612bfa565b91505092915050565b600060208284031215612e9857600080fd5b6000612ea684828501612c0f565b91505092915050565b600060208284031215612ec157600080fd5b600082013567ffffffffffffffff811115612edb57600080fd5b612ee784828501612c4e565b91505092915050565b600060208284031215612f0257600080fd5b6000612f1084828501612c78565b91505092915050565b6000612f2583836133bb565b60208301905092915050565b612f3a81613a2a565b82525050565b6000612f4b826138a9565b612f5581856138d7565b9350612f6083613899565b8060005b83811015612f91578151612f788882612f19565b9750612f83836138ca565b925050600181019050612f64565b5085935050505092915050565b612fa781613a3c565b82525050565b6000612fb8826138b4565b612fc281856138e8565b9350612fd2818560208601613aad565b612fdb81613c79565b840191505092915050565b6000612ff1826138bf565b612ffb81856138f9565b935061300b818560208601613aad565b61301481613c79565b840191505092915050565b600061302a826138bf565b613034818561390a565b9350613044818560208601613aad565b80840191505092915050565b600061305d600e836138f9565b915061306882613c8a565b602082019050919050565b6000613080602b836138f9565b915061308b82613cb3565b604082019050919050565b60006130a36032836138f9565b91506130ae82613d02565b604082019050919050565b60006130c66026836138f9565b91506130d182613d51565b604082019050919050565b60006130e9601c836138f9565b91506130f482613da0565b602082019050919050565b600061310c6024836138f9565b915061311782613dc9565b604082019050919050565b600061312f6019836138f9565b915061313a82613e18565b602082019050919050565b6000613152600e836138f9565b915061315d82613e41565b602082019050919050565b6000613175602c836138f9565b915061318082613e6a565b604082019050919050565b60006131986038836138f9565b91506131a382613eb9565b604082019050919050565b60006131bb602a836138f9565b91506131c682613f08565b604082019050919050565b60006131de6029836138f9565b91506131e982613f57565b604082019050919050565b60006132016020836138f9565b915061320c82613fa6565b602082019050919050565b6000613224602c836138f9565b915061322f82613fcf565b604082019050919050565b600061324760058361390a565b91506132528261401e565b600582019050919050565b600061326a6020836138f9565b915061327582614047565b602082019050919050565b600061328d6029836138f9565b915061329882614070565b604082019050919050565b60006132b0600e836138f9565b91506132bb826140bf565b602082019050919050565b60006132d36012836138f9565b91506132de826140e8565b602082019050919050565b60006132f66021836138f9565b915061330182614111565b604082019050919050565b60006133196020836138f9565b915061332482614160565b602082019050919050565b600061333c6031836138f9565b915061334782614189565b604082019050919050565b600061335f602c836138f9565b915061336a826141d8565b604082019050919050565b60006133826021836138f9565b915061338d82614227565b604082019050919050565b60006133a56030836138f9565b91506133b082614276565b604082019050919050565b6133c481613a94565b82525050565b6133d381613a94565b82525050565b60006133e5828561301f565b91506133f1828461301f565b91506133fc8261323a565b91508190509392505050565b600060208201905061341d6000830184612f31565b92915050565b60006080820190506134386000830187612f31565b6134456020830186612f31565b61345260408301856133ca565b81810360608301526134648184612fad565b905095945050505050565b600060208201905081810360008301526134898184612f40565b905092915050565b60006020820190506134a66000830184612f9e565b92915050565b600060208201905081810360008301526134c68184612fe6565b905092915050565b600060208201905081810360008301526134e781613050565b9050919050565b6000602082019050818103600083015261350781613073565b9050919050565b6000602082019050818103600083015261352781613096565b9050919050565b60006020820190508181036000830152613547816130b9565b9050919050565b60006020820190508181036000830152613567816130dc565b9050919050565b60006020820190508181036000830152613587816130ff565b9050919050565b600060208201905081810360008301526135a781613122565b9050919050565b600060208201905081810360008301526135c781613145565b9050919050565b600060208201905081810360008301526135e781613168565b9050919050565b600060208201905081810360008301526136078161318b565b9050919050565b60006020820190508181036000830152613627816131ae565b9050919050565b60006020820190508181036000830152613647816131d1565b9050919050565b60006020820190508181036000830152613667816131f4565b9050919050565b6000602082019050818103600083015261368781613217565b9050919050565b600060208201905081810360008301526136a78161325d565b9050919050565b600060208201905081810360008301526136c781613280565b9050919050565b600060208201905081810360008301526136e7816132a3565b9050919050565b60006020820190508181036000830152613707816132c6565b9050919050565b60006020820190508181036000830152613727816132e9565b9050919050565b600060208201905081810360008301526137478161330c565b9050919050565b600060208201905081810360008301526137678161332f565b9050919050565b6000602082019050818103600083015261378781613352565b9050919050565b600060208201905081810360008301526137a781613375565b9050919050565b600060208201905081810360008301526137c781613398565b9050919050565b60006020820190506137e360008301846133ca565b92915050565b60006040820190506137fe60008301856133ca565b61380b60208301846133ca565b9392505050565b600061381c61382d565b90506138288282613b12565b919050565b6000604051905090565b600067ffffffffffffffff82111561385257613851613c4a565b5b61385b82613c79565b9050602081019050919050565b600067ffffffffffffffff82111561388357613882613c4a565b5b61388c82613c79565b9050602081019050919050565b6000819050602082019050919050565b600081519050919050565b600081519050919050565b600081519050919050565b6000602082019050919050565b600082825260208201905092915050565b600082825260208201905092915050565b600082825260208201905092915050565b600081905092915050565b600061392082613a94565b915061392b83613a94565b9250827fffffffffffffffffffffffffffffffffffffffffffffffffffffffffffffffff038211156139605761395f613bbd565b5b828201905092915050565b600061397682613a94565b915061398183613a94565b92508261399157613990613bec565b5b828204905092915050565b60006139a782613a94565b91506139b283613a94565b9250817fffffffffffffffffffffffffffffffffffffffffffffffffffffffffffffffff04831182151516156139eb576139ea613bbd565b5b828202905092915050565b6000613a0182613a94565b9150613a0c83613a94565b925082821015613a1f57613a1e613bbd565b5b828203905092915050565b6000613a3582613a74565b9050919050565b60008115159050919050565b60007fffffffff0000000000000000000000000000000000000000000000000000000082169050919050565b600073ffffffffffffffffffffffffffffffffffffffff82169050919050565b6000819050919050565b82818337600083830152505050565b60005b83811015613acb578082015181840152602081019050613ab0565b83811115613ada576000848401525b50505050565b60006002820490506001821680613af857607f821691505b60208210811415613b0c57613b0b613c1b565b5b50919050565b613b1b82613c79565b810181811067ffffffffffffffff82111715613b3a57613b39613c4a565b5b80604052505050565b6000613b4e82613a94565b91507fffffffffffffffffffffffffffffffffffffffffffffffffffffffffffffffff821415613b8157613b80613bbd565b5b600182019050919050565b6000613b9782613a94565b9150613ba283613a94565b925082613bb257613bb1613bec565b5b828206905092915050565b7f4e487b7100000000000000000000000000000000000000000000000000000000600052601160045260246000fd5b7f4e487b7100000000000000000000000000000000000000000000000000000000600052601260045260246000fd5b7f4e487b7100000000000000000000000000000000000000000000000000000000600052602260045260246000fd5b7f4e487b7100000000000000000000000000000000000000000000000000000000600052604160045260246000fd5b6000601f19601f8301169050919050565b7f546f6f206d616e79206c616e6473000000000000000000000000000000000000600082015250565b7f455243373231456e756d657261626c653a206f776e657220696e646578206f7560008201527f74206f6620626f756e6473000000000000000000000000000000000000000000602082015250565b7f4552433732313a207472616e7366657220746f206e6f6e20455243373231526560008201527f63656976657220696d706c656d656e7465720000000000000000000000000000602082015250565b7f4f776e61626c653a206e6577206f776e657220697320746865207a65726f206160008201527f6464726573730000000000000000000000000000000000000000000000000000602082015250565b7f4552433732313a20746f6b656e20616c7265616479206d696e74656400000000600082015250565b7f4552433732313a207472616e7366657220746f20746865207a65726f2061646460008201527f7265737300000000000000000000000000000000000000000000000000000000602082015250565b7f4552433732313a20617070726f766520746f2063616c6c657200000000000000600082015250565b7f414c4c20424f55474854204f5554000000000000000000000000000000000000600082015250565b7f4552433732313a206f70657261746f7220717565727920666f72206e6f6e657860008201527f697374656e7420746f6b656e0000000000000000000000000000000000000000602082015250565b7f4552433732313a20617070726f76652063616c6c6572206973206e6f74206f7760008201527f6e6572206e6f7220617070726f76656420666f7220616c6c0000000000000000602082015250565b7f4552433732313a2062616c616e636520717565727920666f7220746865207a6560008201527f726f206164647265737300000000000000000000000000000000000000000000602082015250565b7f4552433732313a206f776e657220717565727920666f72206e6f6e657869737460008201527f656e7420746f6b656e0000000000000000000000000000000000000000000000602082015250565b7f4552433732313a206d696e7420746f20746865207a65726f2061646472657373600082015250565b7f4552433732313a20617070726f76656420717565727920666f72206e6f6e657860008201527f697374656e7420746f6b656e0000000000000000000000000000000000000000602082015250565b7f2e6a736f6e000000000000000000000000000000000000000000000000000000600082015250565b7f4f776e61626c653a2063616c6c6572206973206e6f7420746865206f776e6572600082015250565b7f4552433732313a207472616e73666572206f6620746f6b656e2074686174206960008201527f73206e6f74206f776e0000000000000000000000000000000000000000000000602082015250565b7f4d7573742073656c6c206f75742e000000000000000000000000000000000000600082015250565b7f657863656564206d617820737570706c792e0000000000000000000000000000600082015250565b7f4552433732313a20617070726f76616c20746f2063757272656e74206f776e6560008201527f7200000000000000000000000000000000000000000000000000000000000000602082015250565b7f76616c7565206572726f722c20706c6561736520636865636b2070726963652e600082015250565b7f4552433732313a207472616e736665722063616c6c6572206973206e6f74206f60008201527f776e6572206e6f7220617070726f766564000000000000000000000000000000602082015250565b7f455243373231456e756d657261626c653a20676c6f62616c20696e646578206f60008201527f7574206f6620626f756e64730000000000000000000000000000000000000000602082015250565b7f4c616e642073616c652061696e277420737461727465642c20706172746e657260008201527f2e00000000000000000000000000000000000000000000000000000000000000602082015250565b7f4552433732314d657461646174613a2055524920717565727920666f72206e6f60008201527f6e6578697374656e7420746f6b656e2e00000000000000000000000000000000602082015250565b6142ce81613a2a565b81146142d957600080fd5b50565b6142e581613a3c565b81146142f057600080fd5b50565b6142fc81613a48565b811461430757600080fd5b50565b61431381613a94565b811461431e57600080fd5b5056fea2646970667358221220b721dc98d312b37750d84fa69bf11fc30f0461866aca79d3ac77ae442085d70764736f6c63430008040033",
  "linkReferences": {},
  "deployedLinkReferences": {}
}