{
  "_format": "hh-sol-artifact-1",
  "contractName": "CropToken",
  "sourceName": "contracts/CropToken.sol",
  "abi": [
    {
      "inputs": [
        {
          "internalType": "address",
          "name": "_fudFarm",
          "type": "address"
        },
        {
          "internalType": "uint256",
          "name": "_rate",
          "type": "uint256"
        },
        {
          "internalType": "uint256",
          "name": "_expiration",
          "type": "uint256"
        }
      ],
      "stateMutability": "nonpayable",
      "type": "constructor"
    },
    {
      "anonymous": false,
      "inputs": [
        {
          "indexed": true,
          "internalType": "address",
          "name": "owner",
          "type": "address"
        },
        {
          "indexed": true,
          "internalType": "address",
          "name": "spender",
          "type": "address"
        },
        {
          "indexed": false,
          "internalType": "uint256",
          "name": "value",
          "type": "uint256"
        }
      ],
      "name": "Approval",
      "type": "event"
    },
    {
      "anonymous": false,
      "inputs": [
        {
          "indexed": true,
          "internalType": "address",
          "name": "previousOwner",
          "type": "address"
        },
        {
          "indexed": true,
          "internalType": "address",
          "name": "newOwner",
          "type": "address"
        }
      ],
      "name": "OwnershipTransferred",
      "type": "event"
    },
    {
      "anonymous": false,
      "inputs": [
        {
          "indexed": true,
          "internalType": "address",
          "name": "from",
          "type": "address"
        },
        {
          "indexed": true,
          "internalType": "address",
          "name": "to",
          "type": "address"
        },
        {
          "indexed": false,
          "internalType": "uint256",
          "name": "value",
          "type": "uint256"
        }
      ],
      "name": "Transfer",
      "type": "event"
    },
    {
      "inputs": [
        {
          "internalType": "address",
          "name": "",
          "type": "address"
        },
        {
          "internalType": "uint256",
          "name": "",
          "type": "uint256"
        }
      ],
      "name": "_depositBlocks",
      "outputs": [
        {
          "internalType": "uint256",
          "name": "",
          "type": "uint256"
        }
      ],
      "stateMutability": "view",
      "type": "function"
    },
    {
      "inputs": [
        {
          "internalType": "address",
          "name": "owner",
          "type": "address"
        },
        {
          "internalType": "address",
          "name": "spender",
          "type": "address"
        }
      ],
      "name": "allowance",
      "outputs": [
        {
          "internalType": "uint256",
          "name": "",
          "type": "uint256"
        }
      ],
      "stateMutability": "view",
      "type": "function"
    },
    {
      "inputs": [
        {
          "internalType": "address",
          "name": "spender",
          "type": "address"
        },
        {
          "internalType": "uint256",
          "name": "amount",
          "type": "uint256"
        }
      ],
      "name": "approve",
      "outputs": [
        {
          "internalType": "bool",
          "name": "",
          "type": "bool"
        }
      ],
      "stateMutability": "nonpayable",
      "type": "function"
    },
    {
      "inputs": [
        {
          "internalType": "address",
          "name": "account",
          "type": "address"
        }
      ],
      "name": "balanceOf",
      "outputs": [
        {
          "internalType": "uint256",
          "name": "",
          "type": "uint256"
        }
      ],
      "stateMutability": "view",
      "type": "function"
    },
    {
      "inputs": [
        {
          "internalType": "uint256",
          "name": "amount",
          "type": "uint256"
        }
      ],
      "name": "burn",
      "outputs": [],
      "stateMutability": "nonpayable",
      "type": "function"
    },
    {
      "inputs": [
        {
          "internalType": "address",
          "name": "account",
          "type": "address"
        },
        {
          "internalType": "uint256",
          "name": "amount",
          "type": "uint256"
        }
      ],
      "name": "burnFrom",
      "outputs": [],
      "stateMutability": "nonpayable",
      "type": "function"
    },
    {
      "inputs": [
        {
          "internalType": "address",
          "name": "account",
          "type": "address"
        },
        {
          "internalType": "uint256[]",
          "name": "tokenIds",
          "type": "uint256[]"
        }
      ],
      "name": "calculateRewards",
      "outputs": [
        {
          "internalType": "uint256[]",
          "name": "rewards",
          "type": "uint256[]"
        }
      ],
      "stateMutability": "view",
      "type": "function"
    },
    {
      "inputs": [
        {
          "internalType": "uint256[]",
          "name": "tokenIds",
          "type": "uint256[]"
        }
      ],
      "name": "claimRewards",
      "outputs": [],
      "stateMutability": "nonpayable",
      "type": "function"
    },
    {
      "inputs": [],
      "name": "decimals",
      "outputs": [
        {
          "internalType": "uint8",
          "name": "",
          "type": "uint8"
        }
      ],
      "stateMutability": "view",
      "type": "function"
    },
    {
      "inputs": [
        {
          "internalType": "address",
          "name": "spender",
          "type": "address"
        },
        {
          "internalType": "uint256",
          "name": "subtractedValue",
          "type": "uint256"
        }
      ],
      "name": "decreaseAllowance",
      "outputs": [
        {
          "internalType": "bool",
          "name": "",
          "type": "bool"
        }
      ],
      "stateMutability": "nonpayable",
      "type": "function"
    },
    {
      "inputs": [
        {
          "internalType": "uint256[]",
          "name": "tokenIds",
          "type": "uint256[]"
        }
      ],
      "name": "deposit",
      "outputs": [],
      "stateMutability": "nonpayable",
      "type": "function"
    },
    {
      "inputs": [
        {
          "internalType": "address",
          "name": "account",
          "type": "address"
        }
      ],
      "name": "depositsOf",
      "outputs": [
        {
          "internalType": "uint256[]",
          "name": "",
          "type": "uint256[]"
        }
      ],
      "stateMutability": "view",
      "type": "function"
    },
    {
      "inputs": [],
      "name": "expiration",
      "outputs": [
        {
          "internalType": "uint256",
          "name": "",
          "type": "uint256"
        }
      ],
      "stateMutability": "view",
      "type": "function"
    },
    {
      "inputs": [],
      "name": "fudFarmAddress",
      "outputs": [
        {
          "internalType": "address",
          "name": "",
          "type": "address"
        }
      ],
      "stateMutability": "view",
      "type": "function"
    },
    {
      "inputs": [
        {
          "internalType": "address",
          "name": "spender",
          "type": "address"
        },
        {
          "internalType": "uint256",
          "name": "addedValue",
          "type": "uint256"
        }
      ],
      "name": "increaseAllowance",
      "outputs": [
        {
          "internalType": "bool",
          "name": "",
          "type": "bool"
        }
      ],
      "stateMutability": "nonpayable",
      "type": "function"
    },
    {
      "inputs": [
        {
          "internalType": "address",
          "name": "account",
          "type": "address"
        },
        {
          "internalType": "uint256",
          "name": "amount",
          "type": "uint256"
        }
      ],
      "name": "mint",
      "outputs": [],
      "stateMutability": "nonpayable",
      "type": "function"
    },
    {
      "inputs": [],
      "name": "name",
      "outputs": [
        {
          "internalType": "string",
          "name": "",
          "type": "string"
        }
      ],
      "stateMutability": "view",
      "type": "function"
    },
    {
      "inputs": [
        {
          "internalType": "address",
          "name": "",
          "type": "address"
        },
        {
          "internalType": "address",
          "name": "",
          "type": "address"
        },
        {
          "internalType": "uint256",
          "name": "",
          "type": "uint256"
        },
        {
          "internalType": "bytes",
          "name": "",
          "type": "bytes"
        }
      ],
      "name": "onERC721Received",
      "outputs": [
        {
          "internalType": "bytes4",
          "name": "",
          "type": "bytes4"
        }
      ],
      "stateMutability": "pure",
      "type": "function"
    },
    {
      "inputs": [],
      "name": "owner",
      "outputs": [
        {
          "internalType": "address",
          "name": "",
          "type": "address"
        }
      ],
      "stateMutability": "view",
      "type": "function"
    },
    {
      "inputs": [],
      "name": "rate",
      "outputs": [
        {
          "internalType": "uint256",
          "name": "",
          "type": "uint256"
        }
      ],
      "stateMutability": "view",
      "type": "function"
    },
    {
      "inputs": [],
      "name": "renounceOwnership",
      "outputs": [],
      "stateMutability": "nonpayable",
      "type": "function"
    },
    {
      "inputs": [
        {
          "internalType": "uint256",
          "name": "_rate",
          "type": "uint256"
        },
        {
          "internalType": "uint256",
          "name": "_expiration",
          "type": "uint256"
        }
      ],
      "name": "setRateExpiration",
      "outputs": [],
      "stateMutability": "nonpayable",
      "type": "function"
    },
    {
      "inputs": [
        {
          "internalType": "address[]",
          "name": "minters",
          "type": "address[]"
        }
      ],
      "name": "setWhitelist",
      "outputs": [],
      "stateMutability": "nonpayable",
      "type": "function"
    },
    {
      "inputs": [],
      "name": "symbol",
      "outputs": [
        {
          "internalType": "string",
          "name": "",
          "type": "string"
        }
      ],
      "stateMutability": "view",
      "type": "function"
    },
    {
      "inputs": [
        {
          "internalType": "address",
          "name": "account",
          "type": "address"
        },
        {
          "internalType": "uint256",
          "name": "amount",
          "type": "uint256"
        }
      ],
      "name": "teamMint",
      "outputs": [],
      "stateMutability": "nonpayable",
      "type": "function"
    },
    {
      "inputs": [],
      "name": "teamMintValue",
      "outputs": [
        {
          "internalType": "uint256",
          "name": "",
          "type": "uint256"
        }
      ],
      "stateMutability": "view",
      "type": "function"
    },
    {
      "inputs": [],
      "name": "totalSupply",
      "outputs": [
        {
          "internalType": "uint256",
          "name": "",
          "type": "uint256"
        }
      ],
      "stateMutability": "view",
      "type": "function"
    },
    {
      "inputs": [
        {
          "internalType": "address",
          "name": "recipient",
          "type": "address"
        },
        {
          "internalType": "uint256",
          "name": "amount",
          "type": "uint256"
        }
      ],
      "name": "transfer",
      "outputs": [
        {
          "internalType": "bool",
          "name": "",
          "type": "bool"
        }
      ],
      "stateMutability": "nonpayable",
      "type": "function"
    },
    {
      "inputs": [
        {
          "internalType": "address",
          "name": "sender",
          "type": "address"
        },
        {
          "internalType": "address",
          "name": "recipient",
          "type": "address"
        },
        {
          "internalType": "uint256",
          "name": "amount",
          "type": "uint256"
        }
      ],
      "name": "transferFrom",
      "outputs": [
        {
          "internalType": "bool",
          "name": "",
          "type": "bool"
        }
      ],
      "stateMutability": "nonpayable",
      "type": "function"
    },
    {
      "inputs": [
        {
          "internalType": "address",
          "name": "newOwner",
          "type": "address"
        }
      ],
      "name": "transferOwnership",
      "outputs": [],
      "stateMutability": "nonpayable",
      "type": "function"
    },
    {
      "inputs": [
        {
          "internalType": "uint256[]",
          "name": "tokenIds",
          "type": "uint256[]"
        }
      ],
      "name": "withdraw",
      "outputs": [],
      "stateMutability": "nonpayable",
      "type": "function"
    }
  ],
  "bytecode": "0x60806040526000600760006101000a81548173ffffffffffffffffffffffffffffffffffffffff021916908373ffffffffffffffffffffffffffffffffffffffff1602179055503480156200005357600080fd5b5060405162003eff38038062003eff833981810160405281019062000079919062000352565b6040518060400160405280600481526020017f43726f70000000000000000000000000000000000000000000000000000000008152506040518060400160405280600481526020017f43524f50000000000000000000000000000000000000000000000000000000008152508160039080519060200190620000fd92919062000274565b5080600490805190602001906200011692919062000274565b505050620001396200012d620001a660201b60201c565b620001ae60201b60201c565b600160068190555082600860006101000a81548173ffffffffffffffffffffffffffffffffffffffff021916908373ffffffffffffffffffffffffffffffffffffffff16021790555081600a819055508043620001979190620003a8565b6009819055505050506200050b565b600033905090565b6000600560009054906101000a900473ffffffffffffffffffffffffffffffffffffffff16905081600560006101000a81548173ffffffffffffffffffffffffffffffffffffffff021916908373ffffffffffffffffffffffffffffffffffffffff1602179055508173ffffffffffffffffffffffffffffffffffffffff168173ffffffffffffffffffffffffffffffffffffffff167f8be0079c531659141344cd1fd0a4f28419497f9722a3daafe3b4186f6b6457e060405160405180910390a35050565b828054620002829062000443565b90600052602060002090601f016020900481019282620002a65760008555620002f2565b82601f10620002c157805160ff1916838001178555620002f2565b82800160010185558215620002f2579182015b82811115620002f1578251825591602001919060010190620002d4565b5b50905062000301919062000305565b5090565b5b808211156200032057600081600090555060010162000306565b5090565b6000815190506200033581620004d7565b92915050565b6000815190506200034c81620004f1565b92915050565b6000806000606084860312156200036857600080fd5b6000620003788682870162000324565b93505060206200038b868287016200033b565b92505060406200039e868287016200033b565b9150509250925092565b6000620003b58262000439565b9150620003c28362000439565b9250827fffffffffffffffffffffffffffffffffffffffffffffffffffffffffffffffff03821115620003fa57620003f962000479565b5b828201905092915050565b6000620004128262000419565b9050919050565b600073ffffffffffffffffffffffffffffffffffffffff82169050919050565b6000819050919050565b600060028204905060018216806200045c57607f821691505b60208210811415620004735762000472620004a8565b5b50919050565b7f4e487b7100000000000000000000000000000000000000000000000000000000600052601160045260246000fd5b7f4e487b7100000000000000000000000000000000000000000000000000000000600052602260045260246000fd5b620004e28162000405565b8114620004ee57600080fd5b50565b620004fc8162000439565b81146200050857600080fd5b50565b6139e4806200051b6000396000f3fe608060405234801561001057600080fd5b50600436106101e55760003560e01c806370a082311161010f578063a457c2d7116100a2578063dd62ed3e11610071578063dd62ed3e14610592578063e3a9db1a146105c2578063f2fde38b146105f2578063f42176481461060e576101e5565b8063a457c2d7146104e6578063a9059cbb14610516578063add5a4fa14610546578063b343ae1414610562576101e5565b80638353b6bb116100de5780638353b6bb146104705780638da5cb5b1461048e57806395d89b41146104ac578063983d95ce146104ca576101e5565b806370a08231146103fc578063715018a61461042c57806379cc6790146104365780638090619714610452576101e5565b8063313ce567116101875780634665096d116101565780634665096d1461038a578063598b8e71146103a85780635eac6239146103c45780636c152700146103e0576101e5565b8063313ce56714610304578063395093511461032257806340c10f191461035257806342966c681461036e576101e5565b8063150b7a02116101c3578063150b7a021461026857806318160ddd1461029857806323b872dd146102b65780632c4e722e146102e6576101e5565b8063068c526f146101ea57806306fdde031461021a578063095ea7b314610238575b600080fd5b61020460048036038101906101ff91906128d0565b61062a565b6040516102119190612e33565b60405180910390f35b61022261082f565b60405161022f9190612e8b565b60405180910390f35b610252600480360381019061024d9190612924565b6108c1565b60405161025f9190612e55565b60405180910390f35b610282600480360381019061027d9190612850565b6108df565b60405161028f9190612e70565b60405180910390f35b6102a06108f4565b6040516102ad91906130cd565b60405180910390f35b6102d060048036038101906102cb9190612801565b6108fe565b6040516102dd9190612e55565b60405180910390f35b6102ee6109f6565b6040516102fb91906130cd565b60405180910390f35b61030c6109fc565b60405161031991906130e8565b60405180910390f35b61033c60048036038101906103379190612924565b610a05565b6040516103499190612e55565b60405180910390f35b61036c60048036038101906103679190612924565b610ab1565b005b610388600480360381019061038391906129ea565b610b4b565b005b610392610b5f565b60405161039f91906130cd565b60405180910390f35b6103c260048036038101906103bd91906129a5565b610b65565b005b6103de60048036038101906103d991906129a5565b610cf6565b005b6103fa60048036038101906103f59190612a13565b610e75565b005b6104166004803603810190610411919061279c565b610f03565b60405161042391906130cd565b60405180910390f35b610434610f4b565b005b610450600480360381019061044b9190612924565b610fd3565b005b61045a61104e565b6040516104679190612dce565b60405180910390f35b610478611074565b60405161048591906130cd565b60405180910390f35b61049661107a565b6040516104a39190612dce565b60405180910390f35b6104b46110a4565b6040516104c19190612e8b565b60405180910390f35b6104e460048036038101906104df91906129a5565b611136565b005b61050060048036038101906104fb9190612924565b6113ec565b60405161050d9190612e55565b60405180910390f35b610530600480360381019061052b9190612924565b6114d7565b60405161053d9190612e55565b60405180910390f35b610560600480360381019061055b9190612924565b6114f5565b005b61057c60048036038101906105779190612924565b611606565b60405161058991906130cd565b60405180910390f35b6105ac60048036038101906105a791906127c5565b61162b565b6040516105b991906130cd565b60405180910390f35b6105dc60048036038101906105d7919061279c565b6116b2565b6040516105e99190612e33565b60405180910390f35b61060c6004803603810190610607919061279c565b6117fb565b005b61062860048036038101906106239190612960565b6118f3565b005b6060815167ffffffffffffffff81111561066d577f4e487b7100000000000000000000000000000000000000000000000000000000600052604160045260246000fd5b60405190808252806020026020018201604052801561069b5781602001602082028036833780820191505090505b50905060005b82518110156108285760008382815181106106e5577f4e487b7100000000000000000000000000000000000000000000000000000000600052603260045260246000fd5b60200260200101519050600c60008673ffffffffffffffffffffffffffffffffffffffff1673ffffffffffffffffffffffffffffffffffffffff16815260200190815260200160002060008281526020019081526020016000205461074c43600954611a92565b610756919061329b565b6107a782600b60008973ffffffffffffffffffffffffffffffffffffffff1673ffffffffffffffffffffffffffffffffffffffff168152602001908152602001600020611aab90919063ffffffff16565b6107b25760006107b5565b60015b60ff16600a546107c59190613241565b6107cf9190613241565b838381518110610808577f4e487b7100000000000000000000000000000000000000000000000000000000600052603260045260246000fd5b602002602001018181525050508080610820906133e6565b9150506106a1565b5092915050565b60606003805461083e90613383565b80601f016020809104026020016040519081016040528092919081815260200182805461086a90613383565b80156108b75780601f1061088c576101008083540402835291602001916108b7565b820191906000526020600020905b81548152906001019060200180831161089a57829003601f168201915b5050505050905090565b60006108d56108ce611ac5565b8484611acd565b6001905092915050565b600063150b7a0260e01b905095945050505050565b6000600254905090565b600061090b848484611c98565b6000600160008673ffffffffffffffffffffffffffffffffffffffff1673ffffffffffffffffffffffffffffffffffffffff1681526020019081526020016000206000610956611ac5565b73ffffffffffffffffffffffffffffffffffffffff1673ffffffffffffffffffffffffffffffffffffffff168152602001908152602001600020549050828110156109d6576040517f08c379a00000000000000000000000000000000000000000000000000000000081526004016109cd90612f8d565b60405180910390fd5b6109ea856109e2611ac5565b858403611acd565b60019150509392505050565b600a5481565b60006012905090565b6000610aa7610a12611ac5565b848460016000610a20611ac5565b73ffffffffffffffffffffffffffffffffffffffff1673ffffffffffffffffffffffffffffffffffffffff16815260200190815260200160002060008873ffffffffffffffffffffffffffffffffffffffff1673ffffffffffffffffffffffffffffffffffffffff16815260200190815260200160002054610aa291906131ba565b611acd565b6001905092915050565b600e60003373ffffffffffffffffffffffffffffffffffffffff1673ffffffffffffffffffffffffffffffffffffffff16815260200190815260200160002060009054906101000a900460ff16610b3d576040517f08c379a0000000000000000000000000000000000000000000000000000000008152600401610b3490612f6d565b60405180910390fd5b610b478282611f19565b5050565b610b5c610b56611ac5565b82612079565b50565b60095481565b610b6f8282610cf6565b60005b82829050811015610cf157600860009054906101000a900473ffffffffffffffffffffffffffffffffffffffff1673ffffffffffffffffffffffffffffffffffffffff1663b88d4fde3330868686818110610bf6577f4e487b7100000000000000000000000000000000000000000000000000000000600052603260045260246000fd5b905060200201356040518463ffffffff1660e01b8152600401610c1b93929190612de9565b600060405180830381600087803b158015610c3557600080fd5b505af1158015610c49573d6000803e3d6000fd5b50505050610cdd838383818110610c89577f4e487b7100000000000000000000000000000000000000000000000000000000600052603260045260246000fd5b90506020020135600b60003373ffffffffffffffffffffffffffffffffffffffff1673ffffffffffffffffffffffffffffffffffffffff16815260200190815260200160002061225090919063ffffffff16565b508080610ce9906133e6565b915050610b72565b505050565b600080610d0543600954611a92565b90506000610d5433868680806020026020016040519081016040528093929190818152602001838360200280828437600081840152601f19601f8201169050808301925050505050505061062a565b905060005b85859050811015610e5957818181518110610d9d577f4e487b7100000000000000000000000000000000000000000000000000000000600052603260045260246000fd5b602002602001015184610db091906131ba565b935082600c60003373ffffffffffffffffffffffffffffffffffffffff1673ffffffffffffffffffffffffffffffffffffffff1681526020019081526020016000206000888885818110610e2d577f4e487b7100000000000000000000000000000000000000000000000000000000600052603260045260246000fd5b905060200201358152602001908152602001600020819055508080610e51906133e6565b915050610d59565b506000831115610e6e57610e6d3384611f19565b5b5050505050565b610e7d611ac5565b73ffffffffffffffffffffffffffffffffffffffff16610e9b61107a565b73ffffffffffffffffffffffffffffffffffffffff1614610ef1576040517f08c379a0000000000000000000000000000000000000000000000000000000008152600401610ee890612fad565b60405180910390fd5b81600a81905550806009819055505050565b60008060008373ffffffffffffffffffffffffffffffffffffffff1673ffffffffffffffffffffffffffffffffffffffff168152602001908152602001600020549050919050565b610f53611ac5565b73ffffffffffffffffffffffffffffffffffffffff16610f7161107a565b73ffffffffffffffffffffffffffffffffffffffff1614610fc7576040517f08c379a0000000000000000000000000000000000000000000000000000000008152600401610fbe90612fad565b60405180910390fd5b610fd1600061226a565b565b6000610fe683610fe1611ac5565b61162b565b90508181101561102b576040517f08c379a000000000000000000000000000000000000000000000000000000000815260040161102290612fcd565b60405180910390fd5b61103f83611037611ac5565b848403611acd565b6110498383612079565b505050565b600860009054906101000a900473ffffffffffffffffffffffffffffffffffffffff1681565b600d5481565b6000600560009054906101000a900473ffffffffffffffffffffffffffffffffffffffff16905090565b6060600480546110b390613383565b80601f01602080910402602001604051908101604052809291908181526020018280546110df90613383565b801561112c5780601f106111015761010080835404028352916020019161112c565b820191906000526020600020905b81548152906001019060200180831161110f57829003601f168201915b5050505050905090565b6002600654141561117c576040517f08c379a00000000000000000000000000000000000000000000000000000000081526004016111739061306d565b60405180910390fd5b600260068190555061118e8282610cf6565b60005b828290508110156113df5761122c8383838181106111d8577f4e487b7100000000000000000000000000000000000000000000000000000000600052603260045260246000fd5b90506020020135600b60003373ffffffffffffffffffffffffffffffffffffffff1673ffffffffffffffffffffffffffffffffffffffff168152602001908152602001600020611aab90919063ffffffff16565b61126b576040517f08c379a000000000000000000000000000000000000000000000000000000000815260040161126290612fed565b60405180910390fd5b6112fb8383838181106112a7577f4e487b7100000000000000000000000000000000000000000000000000000000600052603260045260246000fd5b90506020020135600b60003373ffffffffffffffffffffffffffffffffffffffff1673ffffffffffffffffffffffffffffffffffffffff16815260200190815260200160002061233090919063ffffffff16565b50600860009054906101000a900473ffffffffffffffffffffffffffffffffffffffff1673ffffffffffffffffffffffffffffffffffffffff1663b88d4fde3033868686818110611375577f4e487b7100000000000000000000000000000000000000000000000000000000600052603260045260246000fd5b905060200201356040518463ffffffff1660e01b815260040161139a93929190612de9565b600060405180830381600087803b1580156113b457600080fd5b505af11580156113c8573d6000803e3d6000fd5b5050505080806113d7906133e6565b915050611191565b5060016006819055505050565b600080600160006113fb611ac5565b73ffffffffffffffffffffffffffffffffffffffff1673ffffffffffffffffffffffffffffffffffffffff16815260200190815260200160002060008573ffffffffffffffffffffffffffffffffffffffff1673ffffffffffffffffffffffffffffffffffffffff168152602001908152602001600020549050828110156114b8576040517f08c379a00000000000000000000000000000000000000000000000000000000081526004016114af9061308d565b60405180910390fd5b6114cc6114c3611ac5565b85858403611acd565b600191505092915050565b60006114eb6114e4611ac5565b8484611c98565b6001905092915050565b6114fd611ac5565b73ffffffffffffffffffffffffffffffffffffffff1661151b61107a565b73ffffffffffffffffffffffffffffffffffffffff1614611571576040517f08c379a000000000000000000000000000000000000000000000000000000000815260040161156890612fad565b60405180910390fd5b600a81600d5461158191906131ba565b8261158a6108f4565b61159491906131ba565b61159e9190613210565b10156115df576040517f08c379a00000000000000000000000000000000000000000000000000000000081526004016115d690612eed565b60405180910390fd5b6115e98282611f19565b80600d60008282546115fb91906131ba565b925050819055505050565b600c602052816000526040600020602052806000526040600020600091509150505481565b6000600160008473ffffffffffffffffffffffffffffffffffffffff1673ffffffffffffffffffffffffffffffffffffffff16815260200190815260200160002060008373ffffffffffffffffffffffffffffffffffffffff1673ffffffffffffffffffffffffffffffffffffffff16815260200190815260200160002054905092915050565b60606000600b60008473ffffffffffffffffffffffffffffffffffffffff1673ffffffffffffffffffffffffffffffffffffffff168152602001908152602001600020905060006117028261234a565b67ffffffffffffffff811115611741577f4e487b7100000000000000000000000000000000000000000000000000000000600052604160045260246000fd5b60405190808252806020026020018201604052801561176f5781602001602082028036833780820191505090505b50905060005b61177e8361234a565b8110156117f057611798818461235f90919063ffffffff16565b8282815181106117d1577f4e487b7100000000000000000000000000000000000000000000000000000000600052603260045260246000fd5b60200260200101818152505080806117e8906133e6565b915050611775565b508092505050919050565b611803611ac5565b73ffffffffffffffffffffffffffffffffffffffff1661182161107a565b73ffffffffffffffffffffffffffffffffffffffff1614611877576040517f08c379a000000000000000000000000000000000000000000000000000000000815260040161186e90612fad565b60405180910390fd5b600073ffffffffffffffffffffffffffffffffffffffff168173ffffffffffffffffffffffffffffffffffffffff1614156118e7576040517f08c379a00000000000000000000000000000000000000000000000000000000081526004016118de90612f0d565b60405180910390fd5b6118f08161226a565b50565b6118fb611ac5565b73ffffffffffffffffffffffffffffffffffffffff1661191961107a565b73ffffffffffffffffffffffffffffffffffffffff161461196f576040517f08c379a000000000000000000000000000000000000000000000000000000000815260040161196690612fad565b60405180910390fd5b60005b82829050811015611a35576001600e60008585858181106119bc577f4e487b7100000000000000000000000000000000000000000000000000000000600052603260045260246000fd5b90506020020160208101906119d1919061279c565b73ffffffffffffffffffffffffffffffffffffffff1673ffffffffffffffffffffffffffffffffffffffff16815260200190815260200160002060006101000a81548160ff0219169083151502179055508080611a2d906133e6565b915050611972565b506001600e60003073ffffffffffffffffffffffffffffffffffffffff1673ffffffffffffffffffffffffffffffffffffffff16815260200190815260200160002060006101000a81548160ff0219169083151502179055505050565b6000818310611aa15781611aa3565b825b905092915050565b6000611abd836000018360001b612379565b905092915050565b600033905090565b600073ffffffffffffffffffffffffffffffffffffffff168373ffffffffffffffffffffffffffffffffffffffff161415611b3d576040517f08c379a0000000000000000000000000000000000000000000000000000000008152600401611b349061304d565b60405180910390fd5b600073ffffffffffffffffffffffffffffffffffffffff168273ffffffffffffffffffffffffffffffffffffffff161415611bad576040517f08c379a0000000000000000000000000000000000000000000000000000000008152600401611ba490612f2d565b60405180910390fd5b80600160008573ffffffffffffffffffffffffffffffffffffffff1673ffffffffffffffffffffffffffffffffffffffff16815260200190815260200160002060008473ffffffffffffffffffffffffffffffffffffffff1673ffffffffffffffffffffffffffffffffffffffff168152602001908152602001600020819055508173ffffffffffffffffffffffffffffffffffffffff168373ffffffffffffffffffffffffffffffffffffffff167f8c5be1e5ebec7d5bd14f71427d1e84f3dd0314c0f7b2291e5b200ac8c7c3b92583604051611c8b91906130cd565b60405180910390a3505050565b600073ffffffffffffffffffffffffffffffffffffffff168373ffffffffffffffffffffffffffffffffffffffff161415611d08576040517f08c379a0000000000000000000000000000000000000000000000000000000008152600401611cff9061302d565b60405180910390fd5b600073ffffffffffffffffffffffffffffffffffffffff168273ffffffffffffffffffffffffffffffffffffffff161415611d78576040517f08c379a0000000000000000000000000000000000000000000000000000000008152600401611d6f90612ead565b60405180910390fd5b611d8383838361239c565b60008060008573ffffffffffffffffffffffffffffffffffffffff1673ffffffffffffffffffffffffffffffffffffffff16815260200190815260200160002054905081811015611e09576040517f08c379a0000000000000000000000000000000000000000000000000000000008152600401611e0090612f4d565b60405180910390fd5b8181036000808673ffffffffffffffffffffffffffffffffffffffff1673ffffffffffffffffffffffffffffffffffffffff16815260200190815260200160002081905550816000808573ffffffffffffffffffffffffffffffffffffffff1673ffffffffffffffffffffffffffffffffffffffff1681526020019081526020016000206000828254611e9c91906131ba565b925050819055508273ffffffffffffffffffffffffffffffffffffffff168473ffffffffffffffffffffffffffffffffffffffff167fddf252ad1be2c89b69c2b068fc378daa952ba7f163c4a11628f55a4df523b3ef84604051611f0091906130cd565b60405180910390a3611f138484846123a1565b50505050565b600073ffffffffffffffffffffffffffffffffffffffff168273ffffffffffffffffffffffffffffffffffffffff161415611f89576040517f08c379a0000000000000000000000000000000000000000000000000000000008152600401611f80906130ad565b60405180910390fd5b611f956000838361239c565b8060026000828254611fa791906131ba565b92505081905550806000808473ffffffffffffffffffffffffffffffffffffffff1673ffffffffffffffffffffffffffffffffffffffff1681526020019081526020016000206000828254611ffc91906131ba565b925050819055508173ffffffffffffffffffffffffffffffffffffffff16600073ffffffffffffffffffffffffffffffffffffffff167fddf252ad1be2c89b69c2b068fc378daa952ba7f163c4a11628f55a4df523b3ef8360405161206191906130cd565b60405180910390a3612075600083836123a1565b5050565b600073ffffffffffffffffffffffffffffffffffffffff168273ffffffffffffffffffffffffffffffffffffffff1614156120e9576040517f08c379a00000000000000000000000000000000000000000000000000000000081526004016120e09061300d565b60405180910390fd5b6120f58260008361239c565b60008060008473ffffffffffffffffffffffffffffffffffffffff1673ffffffffffffffffffffffffffffffffffffffff1681526020019081526020016000205490508181101561217b576040517f08c379a000000000000000000000000000000000000000000000000000000000815260040161217290612ecd565b60405180910390fd5b8181036000808573ffffffffffffffffffffffffffffffffffffffff1673ffffffffffffffffffffffffffffffffffffffff1681526020019081526020016000208190555081600260008282546121d2919061329b565b92505081905550600073ffffffffffffffffffffffffffffffffffffffff168373ffffffffffffffffffffffffffffffffffffffff167fddf252ad1be2c89b69c2b068fc378daa952ba7f163c4a11628f55a4df523b3ef8460405161223791906130cd565b60405180910390a361224b836000846123a1565b505050565b6000612262836000018360001b6123a6565b905092915050565b6000600560009054906101000a900473ffffffffffffffffffffffffffffffffffffffff16905081600560006101000a81548173ffffffffffffffffffffffffffffffffffffffff021916908373ffffffffffffffffffffffffffffffffffffffff1602179055508173ffffffffffffffffffffffffffffffffffffffff168173ffffffffffffffffffffffffffffffffffffffff167f8be0079c531659141344cd1fd0a4f28419497f9722a3daafe3b4186f6b6457e060405160405180910390a35050565b6000612342836000018360001b612416565b905092915050565b60006123588260000161259c565b9050919050565b600061236e83600001836125ad565b60001c905092915050565b600080836001016000848152602001908152602001600020541415905092915050565b505050565b505050565b60006123b28383612379565b61240b578260000182908060018154018082558091505060019003906000526020600020016000909190919091505582600001805490508360010160008481526020019081526020016000208190555060019050612410565b600090505b92915050565b60008083600101600084815260200190815260200160002054905060008114612590576000600182612448919061329b565b9050600060018660000180549050612460919061329b565b905081811461251b5760008660000182815481106124a7577f4e487b7100000000000000000000000000000000000000000000000000000000600052603260045260246000fd5b90600052602060002001549050808760000184815481106124f1577f4e487b7100000000000000000000000000000000000000000000000000000000600052603260045260246000fd5b90600052602060002001819055508387600101600083815260200190815260200160002081905550505b85600001805480612555577f4e487b7100000000000000000000000000000000000000000000000000000000600052603160045260246000fd5b600190038181906000526020600020016000905590558560010160008681526020019081526020016000206000905560019350505050612596565b60009150505b92915050565b600081600001805490509050919050565b60008260000182815481106125eb577f4e487b7100000000000000000000000000000000000000000000000000000000600052603260045260246000fd5b9060005260206000200154905092915050565b600061261161260c84613128565b613103565b9050808382526020820190508285602086028201111561263057600080fd5b60005b8581101561266057816126468882612787565b845260208401935060208301925050600181019050612633565b5050509392505050565b60008135905061267981613980565b92915050565b60008083601f84011261269157600080fd5b8235905067ffffffffffffffff8111156126aa57600080fd5b6020830191508360208202830111156126c257600080fd5b9250929050565b60008083601f8401126126db57600080fd5b8235905067ffffffffffffffff8111156126f457600080fd5b60208301915083602082028301111561270c57600080fd5b9250929050565b600082601f83011261272457600080fd5b81356127348482602086016125fe565b91505092915050565b60008083601f84011261274f57600080fd5b8235905067ffffffffffffffff81111561276857600080fd5b60208301915083600182028301111561278057600080fd5b9250929050565b60008135905061279681613997565b92915050565b6000602082840312156127ae57600080fd5b60006127bc8482850161266a565b91505092915050565b600080604083850312156127d857600080fd5b60006127e68582860161266a565b92505060206127f78582860161266a565b9150509250929050565b60008060006060848603121561281657600080fd5b60006128248682870161266a565b93505060206128358682870161266a565b925050604061284686828701612787565b9150509250925092565b60008060008060006080868803121561286857600080fd5b60006128768882890161266a565b95505060206128878882890161266a565b945050604061289888828901612787565b935050606086013567ffffffffffffffff8111156128b557600080fd5b6128c18882890161273d565b92509250509295509295909350565b600080604083850312156128e357600080fd5b60006128f18582860161266a565b925050602083013567ffffffffffffffff81111561290e57600080fd5b61291a85828601612713565b9150509250929050565b6000806040838503121561293757600080fd5b60006129458582860161266a565b925050602061295685828601612787565b9150509250929050565b6000806020838503121561297357600080fd5b600083013567ffffffffffffffff81111561298d57600080fd5b6129998582860161267f565b92509250509250929050565b600080602083850312156129b857600080fd5b600083013567ffffffffffffffff8111156129d257600080fd5b6129de858286016126c9565b92509250509250929050565b6000602082840312156129fc57600080fd5b6000612a0a84828501612787565b91505092915050565b60008060408385031215612a2657600080fd5b6000612a3485828601612787565b9250506020612a4585828601612787565b9150509250929050565b6000612a5b8383612da1565b60208301905092915050565b612a70816132cf565b82525050565b6000612a8182613164565b612a8b8185613187565b9350612a9683613154565b8060005b83811015612ac7578151612aae8882612a4f565b9750612ab98361317a565b925050600181019050612a9a565b5085935050505092915050565b612add816132e1565b82525050565b612aec816132ed565b82525050565b6000612afd8261316f565b612b0781856131a9565b9350612b17818560208601613350565b612b20816134eb565b840191505092915050565b6000612b386023836131a9565b9150612b43826134fc565b604082019050919050565b6000612b5b6022836131a9565b9150612b668261354b565b604082019050919050565b6000612b7e600e836131a9565b9150612b898261359a565b602082019050919050565b6000612ba16026836131a9565b9150612bac826135c3565b604082019050919050565b6000612bc46022836131a9565b9150612bcf82613612565b604082019050919050565b6000612be76026836131a9565b9150612bf282613661565b604082019050919050565b6000612c0a6021836131a9565b9150612c15826136b0565b604082019050919050565b6000612c2d6028836131a9565b9150612c38826136ff565b604082019050919050565b6000612c506020836131a9565b9150612c5b8261374e565b602082019050919050565b6000612c736024836131a9565b9150612c7e82613777565b604082019050919050565b6000612c96601c836131a9565b9150612ca1826137c6565b602082019050919050565b6000612cb96021836131a9565b9150612cc4826137ef565b604082019050919050565b6000612cdc6025836131a9565b9150612ce78261383e565b604082019050919050565b6000612cff600083613198565b9150612d0a8261388d565b600082019050919050565b6000612d226024836131a9565b9150612d2d82613890565b604082019050919050565b6000612d45601f836131a9565b9150612d50826138df565b602082019050919050565b6000612d686025836131a9565b9150612d7382613908565b604082019050919050565b6000612d8b601f836131a9565b9150612d9682613957565b602082019050919050565b612daa81613339565b82525050565b612db981613339565b82525050565b612dc881613343565b82525050565b6000602082019050612de36000830184612a67565b92915050565b6000608082019050612dfe6000830186612a67565b612e0b6020830185612a67565b612e186040830184612db0565b8181036060830152612e2981612cf2565b9050949350505050565b60006020820190508181036000830152612e4d8184612a76565b905092915050565b6000602082019050612e6a6000830184612ad4565b92915050565b6000602082019050612e856000830184612ae3565b92915050565b60006020820190508181036000830152612ea58184612af2565b905092915050565b60006020820190508181036000830152612ec681612b2b565b9050919050565b60006020820190508181036000830152612ee681612b4e565b9050919050565b60006020820190508181036000830152612f0681612b71565b9050919050565b60006020820190508181036000830152612f2681612b94565b9050919050565b60006020820190508181036000830152612f4681612bb7565b9050919050565b60006020820190508181036000830152612f6681612bda565b9050919050565b60006020820190508181036000830152612f8681612bfd565b9050919050565b60006020820190508181036000830152612fa681612c20565b9050919050565b60006020820190508181036000830152612fc681612c43565b9050919050565b60006020820190508181036000830152612fe681612c66565b9050919050565b6000602082019050818103600083015261300681612c89565b9050919050565b6000602082019050818103600083015261302681612cac565b9050919050565b6000602082019050818103600083015261304681612ccf565b9050919050565b6000602082019050818103600083015261306681612d15565b9050919050565b6000602082019050818103600083015261308681612d38565b9050919050565b600060208201905081810360008301526130a681612d5b565b9050919050565b600060208201905081810360008301526130c681612d7e565b9050919050565b60006020820190506130e26000830184612db0565b92915050565b60006020820190506130fd6000830184612dbf565b92915050565b600061310d61311e565b905061311982826133b5565b919050565b6000604051905090565b600067ffffffffffffffff821115613143576131426134bc565b5b602082029050602081019050919050565b6000819050602082019050919050565b600081519050919050565b600081519050919050565b6000602082019050919050565b600082825260208201905092915050565b600082825260208201905092915050565b600082825260208201905092915050565b60006131c582613339565b91506131d083613339565b9250827fffffffffffffffffffffffffffffffffffffffffffffffffffffffffffffffff038211156132055761320461342f565b5b828201905092915050565b600061321b82613339565b915061322683613339565b9250826132365761323561345e565b5b828204905092915050565b600061324c82613339565b915061325783613339565b9250817fffffffffffffffffffffffffffffffffffffffffffffffffffffffffffffffff04831182151516156132905761328f61342f565b5b828202905092915050565b60006132a682613339565b91506132b183613339565b9250828210156132c4576132c361342f565b5b828203905092915050565b60006132da82613319565b9050919050565b60008115159050919050565b60007fffffffff0000000000000000000000000000000000000000000000000000000082169050919050565b600073ffffffffffffffffffffffffffffffffffffffff82169050919050565b6000819050919050565b600060ff82169050919050565b60005b8381101561336e578082015181840152602081019050613353565b8381111561337d576000848401525b50505050565b6000600282049050600182168061339b57607f821691505b602082108114156133af576133ae61348d565b5b50919050565b6133be826134eb565b810181811067ffffffffffffffff821117156133dd576133dc6134bc565b5b80604052505050565b60006133f182613339565b91507fffffffffffffffffffffffffffffffffffffffffffffffffffffffffffffffff8214156134245761342361342f565b5b600182019050919050565b7f4e487b7100000000000000000000000000000000000000000000000000000000600052601160045260246000fd5b7f4e487b7100000000000000000000000000000000000000000000000000000000600052601260045260246000fd5b7f4e487b7100000000000000000000000000000000000000000000000000000000600052602260045260246000fd5b7f4e487b7100000000000000000000000000000000000000000000000000000000600052604160045260246000fd5b6000601f19601f8301169050919050565b7f45524332303a207472616e7366657220746f20746865207a65726f206164647260008201527f6573730000000000000000000000000000000000000000000000000000000000602082015250565b7f45524332303a206275726e20616d6f756e7420657863656564732062616c616e60008201527f6365000000000000000000000000000000000000000000000000000000000000602082015250565b7f544f4f204d55434820535441434b000000000000000000000000000000000000600082015250565b7f4f776e61626c653a206e6577206f776e657220697320746865207a65726f206160008201527f6464726573730000000000000000000000000000000000000000000000000000602082015250565b7f45524332303a20617070726f766520746f20746865207a65726f20616464726560008201527f7373000000000000000000000000000000000000000000000000000000000000602082015250565b7f45524332303a207472616e7366657220616d6f756e742065786365656473206260008201527f616c616e63650000000000000000000000000000000000000000000000000000602082015250565b7f474554204f555420594f55204e4f542057484954454c49535445442c2053455260008201527f2e00000000000000000000000000000000000000000000000000000000000000602082015250565b7f45524332303a207472616e7366657220616d6f756e742065786365656473206160008201527f6c6c6f77616e6365000000000000000000000000000000000000000000000000602082015250565b7f4f776e61626c653a2063616c6c6572206973206e6f7420746865206f776e6572600082015250565b7f45524332303a206275726e20616d6f756e74206578636565647320616c6c6f7760008201527f616e636500000000000000000000000000000000000000000000000000000000602082015250565b7f5374616b696e673a20746f6b656e206e6f74206465706f736974656400000000600082015250565b7f45524332303a206275726e2066726f6d20746865207a65726f2061646472657360008201527f7300000000000000000000000000000000000000000000000000000000000000602082015250565b7f45524332303a207472616e736665722066726f6d20746865207a65726f20616460008201527f6472657373000000000000000000000000000000000000000000000000000000602082015250565b50565b7f45524332303a20617070726f76652066726f6d20746865207a65726f2061646460008201527f7265737300000000000000000000000000000000000000000000000000000000602082015250565b7f5265656e7472616e637947756172643a207265656e7472616e742063616c6c00600082015250565b7f45524332303a2064656372656173656420616c6c6f77616e63652062656c6f7760008201527f207a65726f000000000000000000000000000000000000000000000000000000602082015250565b7f45524332303a206d696e7420746f20746865207a65726f206164647265737300600082015250565b613989816132cf565b811461399457600080fd5b50565b6139a081613339565b81146139ab57600080fd5b5056fea2646970667358221220aa289b89adbc76f9aef00cf3ebb944a447b47f1e6c925347e6e81f46195f5fc464736f6c63430008040033",
  "linkReferences": {},
  "deployedLinkReferences": {}
}